{
  "transactions": [
    {
      "hash": "0x8da6264c59ab100ad868e07d816a49c255d548b60056a489f925a0ccc5bc5746",
      "transactionType": "CALL",
      "contractName": null,
      "contractAddress": "0xff937c773426d16fbcac87df1735d013dd31dd1d",
      "function": "repay(uint256)",
      "arguments": [
        "5000000"
      ],
      "transaction": {
        "from": "0x929f3f70c9edc192a3d3578d7463079aa3e2c7a8",
        "to": "0xff937c773426d16fbcac87df1735d013dd31dd1d",
        "gas": "0x42dd4",
        "value": "0x0",
        "input": "0x371fd8e600000000000000000000000000000000000000000000000000000000004c4b40",
        "nonce": "0xe",
        "chainId": "0xaa36a7"
      },
      "additionalContracts": [],
      "isFixedGasLimit": false
    }
  ],
  "receipts": [
    {
      "status": "0x1",
      "cumulativeGasUsed": "0x891df3",
      "logs": [
        {
          "address": "0xa8d9d2e14cf10dc5d6e6c0615d7c8c714c539b8f",
          "topics": [
            "0xddf252ad1be2c89b69c2b068fc378daa952ba7f163c4a11628f55a4df523b3ef",
            "0x000000000000000000000000929f3f70c9edc192a3d3578d7463079aa3e2c7a8",
            "0x000000000000000000000000ff937c773426d16fbcac87df1735d013dd31dd1d"
          ],
          "data": "0x00000000000000000000000000000000000000000000000000000000004c4b40",
          "blockHash": "0x10a1f4f33dec9cdda7b18f12105e9c468b6d51e5fdf4b23da4195e65fbf3329f",
          "blockNumber": "0x5fdb52",
          "transactionHash": "0x8da6264c59ab100ad868e07d816a49c255d548b60056a489f925a0ccc5bc5746",
          "transactionIndex": "0x4b",
          "logIndex": "0x77",
          "removed": false
        },
        {
          "address": "0xa8d9d2e14cf10dc5d6e6c0615d7c8c714c539b8f",
          "topics": [
            "0xddf252ad1be2c89b69c2b068fc378daa952ba7f163c4a11628f55a4df523b3ef",
            "0x000000000000000000000000ff937c773426d16fbcac87df1735d013dd31dd1d",
            "0x00000000000000000000000062d705204cedd95993ca2ee92bf89821b961ed9b"
          ],
          "data": "0x00000000000000000000000000000000000000000000000000000000004c4a28",
          "blockHash": "0x10a1f4f33dec9cdda7b18f12105e9c468b6d51e5fdf4b23da4195e65fbf3329f",
          "blockNumber": "0x5fdb52",
          "transactionHash": "0x8da6264c59ab100ad868e07d816a49c255d548b60056a489f925a0ccc5bc5746",
          "transactionIndex": "0x4b",
          "logIndex": "0x78",
          "removed": false
        },
        {
          "address": "0xff937c773426d16fbcac87df1735d013dd31dd1d",
          "topics": [
            "0x4340f318eacc0ccf4ddbe2ee41370f0c1f69c71a8151ce5304840f7f486be878",
            "0x000000000000000000000000929f3f70c9edc192a3d3578d7463079aa3e2c7a8"
          ],
          "data": "0x00000000000000000000000000000000000000000000000000000000004c4b4000000000000000000000000000000000000000000000000000000000668e4868000000000000000000000000000000000000000000000000000000000040d99000000000000000000000000000000000000000000000000000000000004c57470000000000000000000000000000000000000000000000000000000000000000000000000000000000000000000000000000000000000000000000000016f58d",
          "blockHash": "0x10a1f4f33dec9cdda7b18f12105e9c468b6d51e5fdf4b23da4195e65fbf3329f",
          "blockNumber": "0x5fdb52",
          "transactionHash": "0x8da6264c59ab100ad868e07d816a49c255d548b60056a489f925a0ccc5bc5746",
          "transactionIndex": "0x4b",
          "logIndex": "0x79",
          "removed": false
        }
      ],
      "logsBloom": "0x00000000000000000000000000001000000000000000000000040000000000000000000000000000000000000000000000000000000200000000000000000400000000000000000000000008000000000000000000000000000000000000002000000000000000000000000000000000000000000000002000000010000000000000000000040000000000000000000000000000000000000000000800000200000000000000000020000000000000000000000000000000000010000000000000000002000000000800000008000000000000400000000000000000008002080000000000000000000001000000000000000000000000000000000000000000",
      "type": "0x2",
      "transactionHash": "0x8da6264c59ab100ad868e07d816a49c255d548b60056a489f925a0ccc5bc5746",
      "transactionIndex": "0x4b",
      "blockHash": "0x10a1f4f33dec9cdda7b18f12105e9c468b6d51e5fdf4b23da4195e65fbf3329f",
      "blockNumber": "0x5fdb52",
      "gasUsed": "0x2db82",
      "effectiveGasPrice": "0x4d6b5d022",
      "from": "0x929f3f70c9edc192a3d3578d7463079aa3e2c7a8",
      "to": "0xff937c773426d16fbcac87df1735d013dd31dd1d",
      "contractAddress": null
    }
  ],
  "libraries": [],
  "pending": [],
  "returns": {},
  "timestamp": 1720600683,
  "chain": 11155111,
  "commit": "0f9b931"
}