{
  "transactions": [
    {
      "hash": "0xb598b378ffce3df0fdcf15bddf8adafe11e7247259d140afc90e9e3c9c34f756",
      "transactionType": "CALL",
      "contractName": null,
      "contractAddress": "0xff937c773426d16fbcac87df1735d013dd31dd1d",
      "function": "liquidate(address,uint256,(uint40,uint256,uint256,uint256,uint256))",
      "arguments": [
        "0x929F3F70c9EdC192A3D3578D7463079AA3e2c7a8",
        "0",
        "(0, 4250000, 0, 0, 0)"
      ],
      "transaction": {
        "from": "0x3e1502d679dfd6cf3d48fa22a2870cfe196e13b3",
        "to": "0xff937c773426d16fbcac87df1735d013dd31dd1d",
        "gas": "0x1b1f3",
        "value": "0x0",
        "input": "0x6b576fd1000000000000000000000000929f3f70c9edc192a3d3578d7463079aa3e2c7a800000000000000000000000000000000000000000000000000000000000000000000000000000000000000000000000000000000000000000000000000000000000000000000000000000000000000000000000000000000000000000040d990000000000000000000000000000000000000000000000000000000000000000000000000000000000000000000000000000000000000000000000000000000000000000000000000000000000000000000000000000000000000000000000000",
        "nonce": "0x33",
        "chainId": "0xaa36a7"
      },
      "additionalContracts": [],
      "isFixedGasLimit": false
    }
  ],
  "receipts": [
    {
      "status": "0x1",
      "cumulativeGasUsed": "0x878957",
      "logs": [
        {
          "address": "0xc6c21d794301454db5f9db53faf00b39ee544900",
          "topics": [
            "0xddf252ad1be2c89b69c2b068fc378daa952ba7f163c4a11628f55a4df523b3ef",
            "0x000000000000000000000000ff937c773426d16fbcac87df1735d013dd31dd1d",
            "0x0000000000000000000000000000000000000000000000000000000000000000"
          ],
          "data": "0x0000000000000000000000000000000000000000000000000000000000000000",
          "blockHash": "0xcb7707c4a8a308781342cd3f8e814ea3a9ebb5328331b924eb7a470b4da49d47",
          "blockNumber": "0x5fec85",
          "transactionHash": "0xb598b378ffce3df0fdcf15bddf8adafe11e7247259d140afc90e9e3c9c34f756",
          "transactionIndex": "0x36",
          "logIndex": "0x54",
          "removed": false
        },
        {
          "address": "0xff937c773426d16fbcac87df1735d013dd31dd1d",
          "topics": [
            "0x94e8a7b47702b181e00728fccc47e9193eca8889e2ddb700258f93a6fd2eb53a",
            "0x000000000000000000000000929f3f70c9edc192a3d3578d7463079aa3e2c7a8"
          ],
          "data": "0x0000000000000000000000000000000000000000000000000000000000000000000000000000000000000000000000000000000000000000000000000040d990000000000000000000000000000000000000000000000000000000000000000000000000000000000000000000000000000000000000000000000000000000000000000000000000000000000000000000000000000000000000000000000000",
          "blockHash": "0xcb7707c4a8a308781342cd3f8e814ea3a9ebb5328331b924eb7a470b4da49d47",
          "blockNumber": "0x5fec85",
          "transactionHash": "0xb598b378ffce3df0fdcf15bddf8adafe11e7247259d140afc90e9e3c9c34f756",
          "transactionIndex": "0x36",
          "logIndex": "0x55",
          "removed": false
        }
      ],
      "logsBloom": "0x00000000000000000000000000001000000000000000000000000000000000000000000000000200000000000000000000000000080000000000000000000400000000000000200000000008000000000000000000000000000000000000002000000000020000000000000000000800000000000000000000000010000000000000000000000000000000000000000000000000000000000000000800000000000000000100000000000000000000000000000000000000000000000000000000000002000000000800400008000000000000400000000000000000008020080000000000000000000040000000000000000000000000000000000000000000",
      "type": "0x2",
      "transactionHash": "0xb598b378ffce3df0fdcf15bddf8adafe11e7247259d140afc90e9e3c9c34f756",
      "transactionIndex": "0x36",
      "blockHash": "0xcb7707c4a8a308781342cd3f8e814ea3a9ebb5328331b924eb7a470b4da49d47",
      "blockNumber": "0x5fec85",
      "gasUsed": "0x13a2d",
      "effectiveGasPrice": "0x86cb7104",
      "from": "0x3e1502d679dfd6cf3d48fa22a2870cfe196e13b3",
      "to": "0xff937c773426d16fbcac87df1735d013dd31dd1d",
      "contractAddress": null
    }
  ],
  "libraries": [],
  "pending": [],
  "returns": {},
  "timestamp": 1720658514,
  "chain": 11155111,
  "commit": "0f9b931"
}