{
  "transactions": [
    {
      "hash": "0x7f0ae058858bf1eaef5680fad2de2ab21c2b569ac1b901b86e0f5140710e0d7d",
      "transactionType": "CALL",
      "contractName": null,
      "contractAddress": "0xff937c773426d16fbcac87df1735d013dd31dd1d",
      "function": "withdraw(uint256)",
      "arguments": ["2000000"],
      "transaction": {
        "from": "0x929f3f70c9edc192a3d3578d7463079aa3e2c7a8",
        "to": "0xff937c773426d16fbcac87df1735d013dd31dd1d",
        "gas": "0x28c8b",
        "value": "0x0",
        "input": "0x745400c900000000000000000000000000000000000000000000000000000000001e8480",
        "nonce": "0x8",
        "chainId": "0xaa36a7"
      },
      "additionalContracts": [],
      "isFixedGasLimit": false
    }
  ],
  "receipts": [
    {
      "status": "0x1",
      "cumulativeGasUsed": "0x535bf9",
      "logs": [
        {
          "address": "0xff937c773426d16fbcac87df1735d013dd31dd1d",
          "topics": [
            "0x54b17257ada83bab5614161c2f0725c9c3c3d871bc6c42e2bc774447ea94e666",
            "0x000000000000000000000000929f3f70c9edc192a3d3578d7463079aa3e2c7a8"
          ],
          "data": "0x00000000000000000000000000000000000000000000000000000000001e848000000000000000000000000000000000000000000000000000000000668cef8c000000000000000000000000000000000000000000000000000000000029f6300000000000000000000000000000000000000000000000000000000000989680000000000000000000000000000000000000000000000000000000000000000000000000000000000000000000000000000000000000000000000000001e8480",
          "blockHash": "0x957167fa990c3a68da2a8f064eaa6f45c8380527e3a7ade4a9c867aaf072f58c",
          "blockNumber": "0x5fc144",
          "transactionHash": "0x7f0ae058858bf1eaef5680fad2de2ab21c2b569ac1b901b86e0f5140710e0d7d",
          "transactionIndex": "0x30",
          "logIndex": "0x49",
          "removed": false
        }
      ],
      "logsBloom": "0x00000000000000000000000000000000000000000000000000000000000000000000000000000000000000200000000000000000000000000000000000000400000000000000000000000000000000000000000000000000000000000000002000000000000000000000000000000000000000000000000000000001000000000000000000000000000000000000000000000000000000000000000800000000000000000000000000000000000000000000000040000000000000000000000000000000000000000000000000000000000000400000000000000000008000080000000000000000000000000000000000000000000000000000000000000000",
      "type": "0x2",
      "transactionHash": "0x7f0ae058858bf1eaef5680fad2de2ab21c2b569ac1b901b86e0f5140710e0d7d",
      "transactionIndex": "0x30",
      "blockHash": "0x957167fa990c3a68da2a8f064eaa6f45c8380527e3a7ade4a9c867aaf072f58c",
      "blockNumber": "0x5fc144",
      "gasUsed": "0x1d86f",
      "effectiveGasPrice": "0xfd249529d",
      "from": "0x929f3f70c9edc192a3d3578d7463079aa3e2c7a8",
      "to": "0xff937c773426d16fbcac87df1735d013dd31dd1d",
      "contractAddress": null
    }
  ],
  "libraries": [],
  "pending": [],
  "returns": {},
  "timestamp": 1720513056,
  "chain": 11155111,
  "commit": "1aafd5a"
}
