{
  "transactions": [
    {
      "hash": "0x4c396e41b317ee3e1c6650c4c596962f2315f470b543dc7bb15f070315d4509f",
      "transactionType": "CALL",
      "contractName": null,
      "contractAddress": "0xa8d9d2e14cf10dc5d6e6c0615d7c8c714c539b8f",
      "function": "approve(address,uint256)",
      "arguments": [
        "0xff937c773426d16fbCAC87df1735d013dD31dd1D",
        "115792089237316195423570985008687907853269984665640564039457584007913129639935"
      ],
      "transaction": {
        "from": "0x235cf1b813e9199086d9fca883026b3d6db2478d",
        "to": "0xa8d9d2e14cf10dc5d6e6c0615d7c8c714c539b8f",
        "gas": "0x10ab1",
        "value": "0x0",
        "input": "0x095ea7b3000000000000000000000000ff937c773426d16fbcac87df1735d013dd31dd1dffffffffffffffffffffffffffffffffffffffffffffffffffffffffffffffff",
        "nonce": "0x2",
        "chainId": "0xaa36a7"
      },
      "additionalContracts": [],
      "isFixedGasLimit": false
    }
  ],
  "receipts": [
    {
      "status": "0x1",
      "cumulativeGasUsed": "0xbc7c8e",
      "logs": [
        {
          "address": "0xa8d9d2e14cf10dc5d6e6c0615d7c8c714c539b8f",
          "topics": [
            "0x8c5be1e5ebec7d5bd14f71427d1e84f3dd0314c0f7b2291e5b200ac8c7c3b925",
            "0x000000000000000000000000235cf1b813e9199086d9fca883026b3d6db2478d",
            "0x000000000000000000000000ff937c773426d16fbcac87df1735d013dd31dd1d"
          ],
          "data": "0xffffffffffffffffffffffffffffffffffffffffffffffffffffffffffffffff",
          "blockHash": "0xff1c31a9788e5c935febc4fa77ea176b6a2680567ad2c86cb83e4d67f5f04529",
          "blockNumber": "0x5fc10c",
          "transactionHash": "0x4c396e41b317ee3e1c6650c4c596962f2315f470b543dc7bb15f070315d4509f",
          "transactionIndex": "0x52",
          "logIndex": "0x7b",
          "removed": false
        }
      ],
      "logsBloom": "0x00080000000000000000000000001000000000000000000000000000000000000000000000000000000000000000000000000000000200000000000000200000000000000000000000000000000000000000000000000000000000000000000000000000000000000000000000000000000000000000000000000000000000000000000000040000100000000000000000000000000000000000000000000000020000000000000000200000000000000000000000000000000000000000000000000000000000000800000008000000000000000000000000000000000000000010000000000000000001000000000000000000000000000000000000000000",
      "type": "0x2",
      "transactionHash": "0x4c396e41b317ee3e1c6650c4c596962f2315f470b543dc7bb15f070315d4509f",
      "transactionIndex": "0x52",
      "blockHash": "0xff1c31a9788e5c935febc4fa77ea176b6a2680567ad2c86cb83e4d67f5f04529",
      "blockNumber": "0x5fc10c",
      "gasUsed": "0xb65b",
      "effectiveGasPrice": "0xf466272fd",
      "from": "0x235cf1b813e9199086d9fca883026b3d6db2478d",
      "to": "0xa8d9d2e14cf10dc5d6e6c0615d7c8c714c539b8f",
      "contractAddress": null
    }
  ],
  "libraries": [],
  "pending": [],
  "returns": {},
  "timestamp": 1720512329,
  "chain": 11155111,
  "commit": "1aafd5a"
}