{
  "transactions": [
    {
      "hash": "0xc319a7d5239c449c36dc79e448c9dda81d98ad2f41e84ed8052f754dff019e8a",
      "transactionType": "CALL",
      "contractName": null,
      "contractAddress": "0xa8d9d2e14cf10dc5d6e6c0615d7c8c714c539b8f",
      "function": "approve(address,uint256)",
      "arguments": [
        "0xff937c773426d16fbCAC87df1735d013dD31dd1D",
        "115792089237316195423570985008687907853269984665640564039457584007913129639935"
      ],
      "transaction": {
        "from": "0x929f3f70c9edc192a3d3578d7463079aa3e2c7a8",
        "to": "0xa8d9d2e14cf10dc5d6e6c0615d7c8c714c539b8f",
        "gas": "0x10ab1",
        "value": "0x0",
        "input": "0x095ea7b3000000000000000000000000ff937c773426d16fbcac87df1735d013dd31dd1dffffffffffffffffffffffffffffffffffffffffffffffffffffffffffffffff",
        "nonce": "0xd",
        "chainId": "0xaa36a7"
      },
      "additionalContracts": [],
      "isFixedGasLimit": false
    }
  ],
  "receipts": [
    {
      "status": "0x1",
      "cumulativeGasUsed": "0x620261",
      "logs": [
        {
          "address": "0xa8d9d2e14cf10dc5d6e6c0615d7c8c714c539b8f",
          "topics": [
            "0x8c5be1e5ebec7d5bd14f71427d1e84f3dd0314c0f7b2291e5b200ac8c7c3b925",
            "0x000000000000000000000000929f3f70c9edc192a3d3578d7463079aa3e2c7a8",
            "0x000000000000000000000000ff937c773426d16fbcac87df1735d013dd31dd1d"
          ],
          "data": "0xffffffffffffffffffffffffffffffffffffffffffffffffffffffffffffffff",
          "blockHash": "0x4fe8e66be85a697a631c83a307d422fc4c64fb442d95b5d8fa3551341d95ca43",
          "blockNumber": "0x5fdb4e",
          "transactionHash": "0xc319a7d5239c449c36dc79e448c9dda81d98ad2f41e84ed8052f754dff019e8a",
          "transactionIndex": "0x32",
          "logIndex": "0x46",
          "removed": false
        }
      ],
      "logsBloom": "0x00000000000000000000000000001000000000000000000000000000000000000000000000000000000000000000000000000000000200000000000000200000000000000000000000000000000000000000000000000000000000000000000000000000000000000000000000000000000000000000000000000000000000000000000000040000000000000000000000000000000000000000000800000000020000000000000000000000000000000000000000000000000000000000000000000000000000000800000008000000000000400000000000000000008000000010000000000000000001000000000000000000000000000000000000000000",
      "type": "0x2",
      "transactionHash": "0xc319a7d5239c449c36dc79e448c9dda81d98ad2f41e84ed8052f754dff019e8a",
      "transactionIndex": "0x32",
      "blockHash": "0x4fe8e66be85a697a631c83a307d422fc4c64fb442d95b5d8fa3551341d95ca43",
      "blockNumber": "0x5fdb4e",
      "gasUsed": "0xb65b",
      "effectiveGasPrice": "0x4f630fa36",
      "from": "0x929f3f70c9edc192a3d3578d7463079aa3e2c7a8",
      "to": "0xa8d9d2e14cf10dc5d6e6c0615d7c8c714c539b8f",
      "contractAddress": null
    }
  ],
  "libraries": [],
  "pending": [],
  "returns": {},
  "timestamp": 1720600633,
  "chain": 11155111,
  "commit": "0f9b931"
}