{
  "transactions": [
    {
      "hash": "0xd36a7df2bf3679c0409aab38ab3f476f6705e43e0528a3d0d4a3755551a438f6",
      "transactionType": "CALL",
      "contractName": null,
      "contractAddress": "0x037017580b1ed99952a006b5197592b1aa08a166",
      "function": "approve(address,uint256)",
      "arguments": [
        "0xff937c773426d16fbCAC87df1735d013dD31dd1D",
        "9500000"
      ],
      "transaction": {
        "from": "0x3e1502d679dfd6cf3d48fa22a2870cfe196e13b3",
        "to": "0x037017580b1ed99952a006b5197592b1aa08a166",
        "gas": "0xf7b2",
        "value": "0x0",
        "input": "0x095ea7b3000000000000000000000000ff937c773426d16fbcac87df1735d013dd31dd1d000000000000000000000000000000000000000000000000000000000090f560",
        "nonce": "0x2d",
        "chainId": "0xaa36a7"
      },
      "additionalContracts": [],
      "isFixedGasLimit": false
    }
  ],
  "receipts": [
    {
      "status": "0x1",
      "cumulativeGasUsed": "0x143bace",
      "logs": [
        {
          "address": "0x037017580b1ed99952a006b5197592b1aa08a166",
          "topics": [
            "0x8c5be1e5ebec7d5bd14f71427d1e84f3dd0314c0f7b2291e5b200ac8c7c3b925",
            "0x0000000000000000000000003e1502d679dfd6cf3d48fa22a2870cfe196e13b3",
            "0x000000000000000000000000ff937c773426d16fbcac87df1735d013dd31dd1d"
          ],
          "data": "0x000000000000000000000000000000000000000000000000000000000090f560",
          "blockHash": "0x647e9faf01747a8fe5769ef7fa8384b2f147be447fea610a55581e03fbff45e3",
          "blockNumber": "0x5fbe6c",
          "transactionHash": "0xd36a7df2bf3679c0409aab38ab3f476f6705e43e0528a3d0d4a3755551a438f6",
          "transactionIndex": "0x7a",
          "logIndex": "0xe9",
          "removed": false
        }
      ],
      "logsBloom": "0x00000000000000000000000000001000000000000000000000000000040000000000000000000000000000000000000000000000000000000000000000200000000000000000000000000000000000000000000000000000000000000000000000000000000000000000000000000000000000000000000000000040000000000000000000000000000000000000000000000000000000000000000000000000020000000000000000000000000000000000000000000000000000000000000000000000000000000800000008000000000000000200000000000010000000000010000000000000000000000000000000000000000000000000400000000000",
      "type": "0x2",
      "transactionHash": "0xd36a7df2bf3679c0409aab38ab3f476f6705e43e0528a3d0d4a3755551a438f6",
      "transactionIndex": "0x7a",
      "blockHash": "0x647e9faf01747a8fe5769ef7fa8384b2f147be447fea610a55581e03fbff45e3",
      "blockNumber": "0x5fbe6c",
      "gasUsed": "0xb354",
      "effectiveGasPrice": "0x140857576",
      "from": "0x3e1502d679dfd6cf3d48fa22a2870cfe196e13b3",
      "to": "0x037017580b1ed99952a006b5197592b1aa08a166",
      "contractAddress": null
    }
  ],
  "libraries": [],
  "pending": [],
  "returns": {},
  "timestamp": 1720503485,
  "chain": 11155111,
  "commit": "1aafd5a"
}