{
  "transactions": [
    {
      "hash": "0x57e6b518739bec821065640487667a290f33dde01aae5d925298aebd958c735c",
      "transactionType": "CALL",
      "contractName": null,
      "contractAddress": "0x037017580b1ed99952a006b5197592b1aa08a166",
      "function": "approve(address,uint256)",
      "arguments": [
        "0xff937c773426d16fbCAC87df1735d013dD31dd1D",
        "115792089237316195423570985008687907853269984665640564039457584007913129639935"
      ],
      "transaction": {
        "from": "0x235cf1b813e9199086d9fca883026b3d6db2478d",
        "to": "0x037017580b1ed99952a006b5197592b1aa08a166",
        "gas": "0xf993",
        "value": "0x0",
        "input": "0x095ea7b3000000000000000000000000ff937c773426d16fbcac87df1735d013dd31dd1dffffffffffffffffffffffffffffffffffffffffffffffffffffffffffffffff",
        "nonce": "0x1",
        "chainId": "0xaa36a7"
      },
      "additionalContracts": [],
      "isFixedGasLimit": false
    }
  ],
  "receipts": [
    {
      "status": "0x1",
      "cumulativeGasUsed": "0xc0ac92",
      "logs": [
        {
          "address": "0x037017580b1ed99952a006b5197592b1aa08a166",
          "topics": [
            "0x8c5be1e5ebec7d5bd14f71427d1e84f3dd0314c0f7b2291e5b200ac8c7c3b925",
            "0x000000000000000000000000235cf1b813e9199086d9fca883026b3d6db2478d",
            "0x000000000000000000000000ff937c773426d16fbcac87df1735d013dd31dd1d"
          ],
          "data": "0xffffffffffffffffffffffffffffffffffffffffffffffffffffffffffffffff",
          "blockHash": "0x3889420d6c0b280884cae8df71e2c453f1f458675658f133cdc8cab107b37782",
          "blockNumber": "0x5fc0ec",
          "transactionHash": "0x57e6b518739bec821065640487667a290f33dde01aae5d925298aebd958c735c",
          "transactionIndex": "0x56",
          "logIndex": "0xe6",
          "removed": false
        }
      ],
      "logsBloom": "0x00080000000000000000000000001000000000000000000000000000000000000000000000000000000000000000000000000000000000000000000000200000000000000000000000000000000000000000000000000000000000000000000000000000000000000000000000000000000000000000000000000000000000000000000000000000100000000000000000000000000000000000000000000000020000000000000000200000000000000000000000000000000000000000000000000000000000000800000008000000000000000200000000000010000000000010000000000000000000000000000000000000000000000000400000000000",
      "type": "0x2",
      "transactionHash": "0x57e6b518739bec821065640487667a290f33dde01aae5d925298aebd958c735c",
      "transactionIndex": "0x56",
      "blockHash": "0x3889420d6c0b280884cae8df71e2c453f1f458675658f133cdc8cab107b37782",
      "blockNumber": "0x5fc0ec",
      "gasUsed": "0xb4b0",
      "effectiveGasPrice": "0xbdb865c32",
      "from": "0x235cf1b813e9199086d9fca883026b3d6db2478d",
      "to": "0x037017580b1ed99952a006b5197592b1aa08a166",
      "contractAddress": null
    }
  ],
  "libraries": [],
  "pending": [],
  "returns": {},
  "timestamp": 1720511907,
  "chain": 11155111,
  "commit": "1aafd5a"
}