{
  "transactions": [
    {
      "hash": "0xeda98098819d12dc6c9a1e581e28896522338dce0554996190f0c13a194444ae",
      "transactionType": "CALL",
      "contractName": null,
      "contractAddress": "0x037017580b1ed99952a006b5197592b1aa08a166",
      "function": "approve(address,uint256)",
      "arguments": [
        "0xff937c773426d16fbCAC87df1735d013dD31dd1D",
        "115792089237316195423570985008687907853269984665640564039457584007913129639935"
      ],
      "transaction": {
        "from": "0x235cf1b813e9199086d9fca883026b3d6db2478d",
        "to": "0x037017580b1ed99952a006b5197592b1aa08a166",
        "gas": "0x8e33",
        "value": "0x0",
        "input": "0x095ea7b3000000000000000000000000ff937c773426d16fbcac87df1735d013dd31dd1dffffffffffffffffffffffffffffffffffffffffffffffffffffffffffffffff",
        "nonce": "0x4",
        "chainId": "0xaa36a7"
      },
      "additionalContracts": [],
      "isFixedGasLimit": false
    }
  ],
  "receipts": [
    {
      "status": "0x1",
      "cumulativeGasUsed": "0x645a2e",
      "logs": [
        {
          "address": "0x037017580b1ed99952a006b5197592b1aa08a166",
          "topics": [
            "0x8c5be1e5ebec7d5bd14f71427d1e84f3dd0314c0f7b2291e5b200ac8c7c3b925",
            "0x000000000000000000000000235cf1b813e9199086d9fca883026b3d6db2478d",
            "0x000000000000000000000000ff937c773426d16fbcac87df1735d013dd31dd1d"
          ],
          "data": "0xffffffffffffffffffffffffffffffffffffffffffffffffffffffffffffffff",
          "blockHash": "0x0f06d322e5a948b5d4e775c5486a4083c3f576b5c2f0fea4f96fb79f7f7afd56",
          "blockNumber": "0x5fd629",
          "transactionHash": "0xeda98098819d12dc6c9a1e581e28896522338dce0554996190f0c13a194444ae",
          "transactionIndex": "0x30",
          "logIndex": "0x230",
          "removed": false
        }
      ],
      "logsBloom": "0x00080000000000000000000000001000000000000000000000000000000000000000000000000000000000000000000000000000000000000000000000200000000000000000000000000000000000000000000000000000000000000000000000000000000000000000000000000000000000000000000000000000000000000000000000000000100000000000000000000000000000000000000000000000020000000000000000200000000000000000000000000000000000000000000000000000000000000800000008000000000000000200000000000010000000000010000000000000000000000000000000000000000000000000400000000000",
      "type": "0x2",
      "transactionHash": "0xeda98098819d12dc6c9a1e581e28896522338dce0554996190f0c13a194444ae",
      "transactionIndex": "0x30",
      "blockHash": "0x0f06d322e5a948b5d4e775c5486a4083c3f576b5c2f0fea4f96fb79f7f7afd56",
      "blockNumber": "0x5fd629",
      "gasUsed": "0x66f4",
      "effectiveGasPrice": "0x147f01177",
      "from": "0x235cf1b813e9199086d9fca883026b3d6db2478d",
      "to": "0x037017580b1ed99952a006b5197592b1aa08a166",
      "contractAddress": null
    }
  ],
  "libraries": [],
  "pending": [],
  "returns": {},
  "timestamp": 1720583365,
  "chain": 11155111,
  "commit": "0f9b931"
}