{
  "transactions": [
    {
      "hash": "0x5eba016071a456b1caaec2e3244e32b5d1779159c5adfd75e03ec554ae0a89ee",
      "transactionType": "CALL",
      "contractName": null,
      "contractAddress": "0x037017580b1ed99952a006b5197592b1aa08a166",
      "function": "approve(address,uint256)",
      "arguments": [
        "0xff937c773426d16fbCAC87df1735d013dD31dd1D",
        "0"
      ],
      "transaction": {
        "from": "0x235cf1b813e9199086d9fca883026b3d6db2478d",
        "to": "0x037017580b1ed99952a006b5197592b1aa08a166",
        "gas": "0x8c21",
        "value": "0x0",
        "input": "0x095ea7b3000000000000000000000000ff937c773426d16fbcac87df1735d013dd31dd1d0000000000000000000000000000000000000000000000000000000000000000",
        "nonce": "0x0",
        "chainId": "0xaa36a7"
      },
      "additionalContracts": [],
      "isFixedGasLimit": false
    }
  ],
  "receipts": [
    {
      "status": "0x1",
      "cumulativeGasUsed": "0x136a4d3",
      "logs": [
        {
          "address": "0x037017580b1ed99952a006b5197592b1aa08a166",
          "topics": [
            "0x8c5be1e5ebec7d5bd14f71427d1e84f3dd0314c0f7b2291e5b200ac8c7c3b925",
            "0x000000000000000000000000235cf1b813e9199086d9fca883026b3d6db2478d",
            "0x000000000000000000000000ff937c773426d16fbcac87df1735d013dd31dd1d"
          ],
          "data": "0x0000000000000000000000000000000000000000000000000000000000000000",
          "blockHash": "0x47d88296a440b422afebb5286c836ae9b69c818ebf523843c9f0fffc8f5097bb",
          "blockNumber": "0x5fc0e3",
          "transactionHash": "0x5eba016071a456b1caaec2e3244e32b5d1779159c5adfd75e03ec554ae0a89ee",
          "transactionIndex": "0x5e",
          "logIndex": "0xbe",
          "removed": false
        }
      ],
      "logsBloom": "0x00080000000000000000000000001000000000000000000000000000000000000000000000000000000000000000000000000000000000000000000000200000000000000000000000000000000000000000000000000000000000000000000000000000000000000000000000000000000000000000000000000000000000000000000000000000100000000000000000000000000000000000000000000000020000000000000000200000000000000000000000000000000000000000000000000000000000000800000008000000000000000200000000000010000000000010000000000000000000000000000000000000000000000000400000000000",
      "type": "0x2",
      "transactionHash": "0x5eba016071a456b1caaec2e3244e32b5d1779159c5adfd75e03ec554ae0a89ee",
      "transactionIndex": "0x5e",
      "blockHash": "0x47d88296a440b422afebb5286c836ae9b69c818ebf523843c9f0fffc8f5097bb",
      "blockNumber": "0x5fc0e3",
      "gasUsed": "0x6574",
      "effectiveGasPrice": "0xadf048f7f",
      "from": "0x235cf1b813e9199086d9fca883026b3d6db2478d",
      "to": "0x037017580b1ed99952a006b5197592b1aa08a166",
      "contractAddress": null
    }
  ],
  "libraries": [],
  "pending": [],
  "returns": {},
  "timestamp": 1720511799,
  "chain": 11155111,
  "commit": "1aafd5a"
}