{
  "transactions": [
    {
      "hash": "0x75aef7ccad710ae990215f14166dc4feb396f1df6e7267fe6b1a550d3054d35b",
      "transactionType": "CALL",
      "contractName": null,
      "contractAddress": "0x037017580b1ed99952a006b5197592b1aa08a166",
      "function": "approve(address,uint256)",
      "arguments": [
        "0xff937c773426d16fbCAC87df1735d013dD31dd1D",
        "9500000"
      ],
      "transaction": {
        "from": "0x929f3f70c9edc192a3d3578d7463079aa3e2c7a8",
        "to": "0x037017580b1ed99952a006b5197592b1aa08a166",
        "gas": "0x8c52",
        "value": "0x0",
        "input": "0x095ea7b3000000000000000000000000ff937c773426d16fbcac87df1735d013dd31dd1d000000000000000000000000000000000000000000000000000000000090f560",
        "nonce": "0x3",
        "chainId": "0xaa36a7"
      },
      "additionalContracts": [],
      "isFixedGasLimit": false
    }
  ],
  "receipts": [
    {
      "status": "0x1",
      "cumulativeGasUsed": "0xc37a8f",
      "logs": [
        {
          "address": "0x037017580b1ed99952a006b5197592b1aa08a166",
          "topics": [
            "0x8c5be1e5ebec7d5bd14f71427d1e84f3dd0314c0f7b2291e5b200ac8c7c3b925",
            "0x000000000000000000000000929f3f70c9edc192a3d3578d7463079aa3e2c7a8",
            "0x000000000000000000000000ff937c773426d16fbcac87df1735d013dd31dd1d"
          ],
          "data": "0x000000000000000000000000000000000000000000000000000000000090f560",
          "blockHash": "0x8d1ad78555d25e9a26d5c7c06ae2fad743be3280319535943fea84521717e50b",
          "blockNumber": "0x5fbe77",
          "transactionHash": "0x75aef7ccad710ae990215f14166dc4feb396f1df6e7267fe6b1a550d3054d35b",
          "transactionIndex": "0x6e",
          "logIndex": "0x93",
          "removed": false
        }
      ],
      "logsBloom": "0x00000000000000000000000000001000000000000000000000000000000000000000000000000000000000000000000000000000000000000000000000200000000000000000000000000000000000000000000000000000000000000000000000000000000000000000000000000000000000000000000000000000000000000000000000000000000000000000000000000000000000000000000800000000020000000000000000000000000000000000000000000000000000000000000000000000000000000800000008000000000000400200000000000010008000000010000000000000000000000000000000000000000000000000400000000000",
      "type": "0x2",
      "transactionHash": "0x75aef7ccad710ae990215f14166dc4feb396f1df6e7267fe6b1a550d3054d35b",
      "transactionIndex": "0x6e",
      "blockHash": "0x8d1ad78555d25e9a26d5c7c06ae2fad743be3280319535943fea84521717e50b",
      "blockNumber": "0x5fbe77",
      "gasUsed": "0x6598",
      "effectiveGasPrice": "0x13b5ee312",
      "from": "0x929f3f70c9edc192a3d3578d7463079aa3e2c7a8",
      "to": "0x037017580b1ed99952a006b5197592b1aa08a166",
      "contractAddress": null
    }
  ],
  "libraries": [],
  "pending": [],
  "returns": {},
  "timestamp": 1720503642,
  "chain": 11155111,
  "commit": "1aafd5a"
}