{
  "transactions": [
    {
      "hash": "0xe925f9224d890b60db1aa1bb0476850bc22a4ccdb4a6dd2291d6365cd889a8d4",
      "transactionType": "CALL",
      "contractName": null,
      "contractAddress": "0xff937c773426d16fbcac87df1735d013dd31dd1d",
      "function": "borrow(uint256)",
      "arguments": [
        "10000000"
      ],
      "transaction": {
        "from": "0x929f3f70c9edc192a3d3578d7463079aa3e2c7a8",
        "to": "0xff937c773426d16fbcac87df1735d013dd31dd1d",
        "gas": "0x32272",
        "value": "0x0",
        "input": "0xc5ebeaec0000000000000000000000000000000000000000000000000000000000989680",
        "nonce": "0x7",
        "chainId": "0xaa36a7"
      },
      "additionalContracts": [],
      "isFixedGasLimit": false
    }
  ],
  "receipts": [
    {
      "status": "0x1",
      "cumulativeGasUsed": "0x85917d",
      "logs": [
        {
          "address": "0xa8d9d2e14cf10dc5d6e6c0615d7c8c714c539b8f",
          "topics": [
            "0xddf252ad1be2c89b69c2b068fc378daa952ba7f163c4a11628f55a4df523b3ef",
            "0x000000000000000000000000235cf1b813e9199086d9fca883026b3d6db2478d",
            "0x000000000000000000000000929f3f70c9edc192a3d3578d7463079aa3e2c7a8"
          ],
          "data": "0x0000000000000000000000000000000000000000000000000000000000989680",
          "blockHash": "0xe08d1b6ab4ae80dacf35988b43fe91e28dc9cf78ae02b7f3075d69302df67eba",
          "blockNumber": "0x5fc112",
          "transactionHash": "0xe925f9224d890b60db1aa1bb0476850bc22a4ccdb4a6dd2291d6365cd889a8d4",
          "transactionIndex": "0x40",
          "logIndex": "0x7d",
          "removed": false
        },
        {
          "address": "0xff937c773426d16fbcac87df1735d013dd31dd1d",
          "topics": [
            "0xc7819a4e8652144c7ebb1d3d6a0694db691fc21f72767d63561b422f90fe4a33",
            "0x000000000000000000000000929f3f70c9edc192a3d3578d7463079aa3e2c7a8"
          ],
          "data": "0x000000000000000000000000000000000000000000000000000000000098968000000000000000000000000000000000000000000000000000000000668cef8c0000000000000000000000000000000000000000000000000000000000487ab0000000000000000000000000000000000000000000000000000000000098968000000000000000000000000000000000000000000000000000000000000000000000000000000000000000000000000000000000000000000000000000000000",
          "blockHash": "0xe08d1b6ab4ae80dacf35988b43fe91e28dc9cf78ae02b7f3075d69302df67eba",
          "blockNumber": "0x5fc112",
          "transactionHash": "0xe925f9224d890b60db1aa1bb0476850bc22a4ccdb4a6dd2291d6365cd889a8d4",
          "transactionIndex": "0x40",
          "logIndex": "0x7e",
          "removed": false
        }
      ],
      "logsBloom": "0x00080000000000000000000000000000000000000000000000000000000000000000000000000000000000000000000000000000000200000000000000000400000000000000000000000008000000000000000000000000000000000000002000000000000000000000000000000000000000000000000000000010000000000000000000040000100000000000000000000000000000000000000800000000000000000000000000200000000000000000000000000000000000000000000000000002000000000000000000000000000020400000000000000000008000080000000000000000004001000000000000000000000000000000000000000400",
      "type": "0x2",
      "transactionHash": "0xe925f9224d890b60db1aa1bb0476850bc22a4ccdb4a6dd2291d6365cd889a8d4",
      "transactionIndex": "0x40",
      "blockHash": "0xe08d1b6ab4ae80dacf35988b43fe91e28dc9cf78ae02b7f3075d69302df67eba",
      "blockNumber": "0x5fc112",
      "gasUsed": "0x244f5",
      "effectiveGasPrice": "0xec699b42f",
      "from": "0x929f3f70c9edc192a3d3578d7463079aa3e2c7a8",
      "to": "0xff937c773426d16fbcac87df1735d013dd31dd1d",
      "contractAddress": null
    }
  ],
  "libraries": [],
  "pending": [],
  "returns": {},
  "timestamp": 1720512402,
  "chain": 11155111,
  "commit": "1aafd5a"
}