{
  "transactions": [
    {
      "hash": "0xe0575ceacea95aa428291b851abe16683a7f6f230017ee978d2d1d1345ad375c",
      "transactionType": "CALL",
      "contractName": null,
      "contractAddress": "0xff937c773426d16fbcac87df1735d013dd31dd1d",
      "function": "createPool(address)",
      "arguments": [
        "0x929F3F70c9EdC192A3D3578D7463079AA3e2c7a8"
      ],
      "transaction": {
        "from": "0x3e1502d679dfd6cf3d48fa22a2870cfe196e13b3",
        "to": "0xff937c773426d16fbcac87df1735d013dd31dd1d",
        "gas": "0x326b7",
        "value": "0x0",
        "input": "0x9049f9d2000000000000000000000000929f3f70c9edc192a3d3578d7463079aa3e2c7a8",
        "nonce": "0x2c",
        "chainId": "0xaa36a7"
      },
      "additionalContracts": [],
      "isFixedGasLimit": false
    }
  ],
  "receipts": [
    {
      "status": "0x1",
      "cumulativeGasUsed": "0xeebb5d",
      "logs": [
        {
          "address": "0xff937c773426d16fbcac87df1735d013dd31dd1d",
          "topics": [
            "0x7512dd2bd356078b9c64a601ac870c6869f0d6a15804a06fc1df6a4948910f03",
            "0x000000000000000000000000929f3f70c9edc192a3d3578d7463079aa3e2c7a8"
          ],
          "data": "0x000000000000000000000000000000000000000000000000000000000000000100000000000000000000000000000000000000000000000000000000000003e80000000000000000000000000000000000000000000000000000000000001d4c0000000000000000000000000000000000000000000000000000000000001388",
          "blockHash": "0x921ed8904bd30b9b0c006f07c446c099b7bff6d2e25b2557a514667ea4f2669c",
          "blockNumber": "0x5fbe53",
          "transactionHash": "0xe0575ceacea95aa428291b851abe16683a7f6f230017ee978d2d1d1345ad375c",
          "transactionIndex": "0x46",
          "logIndex": "0x77",
          "removed": false
        }
      ],
      "logsBloom": "0x00000000000000000000000000000000000000000000000000000000000000000000000000000000000000080000000000000000000000000000000000000400000000000000000000000000000000000000010000000000000000000000002000000000000000000000000000000000000000000000000000000000000000000000000000000000000000000000000000000000000000000000000800000000000000000000000000000000000000000000000000000000000000000000000000000800000000000000000000000000000000400000000000000000008000080000000000000000000000000000000000000000000000000000000000000000",
      "type": "0x2",
      "transactionHash": "0xe0575ceacea95aa428291b851abe16683a7f6f230017ee978d2d1d1345ad375c",
      "transactionIndex": "0x46",
      "blockHash": "0x921ed8904bd30b9b0c006f07c446c099b7bff6d2e25b2557a514667ea4f2669c",
      "blockNumber": "0x5fbe53",
      "gasUsed": "0x2279a",
      "effectiveGasPrice": "0x1288a85f3",
      "from": "0x3e1502d679dfd6cf3d48fa22a2870cfe196e13b3",
      "to": "0xff937c773426d16fbcac87df1735d013dd31dd1d",
      "contractAddress": null
    }
  ],
  "libraries": [],
  "pending": [],
  "returns": {},
  "timestamp": 1720503174,
  "chain": 11155111,
  "commit": "1aafd5a"
}