{
  "transactions": [
    {
      "hash": "0x9e3a2be88aa0f8bf2ac7d3e318999f505c4bca57022940360d727056ab6456a0",
      "transactionType": "CALL",
      "contractName": null,
      "contractAddress": "0xff937c773426d16fbcac87df1735d013dd31dd1d",
      "function": "createPool(address)",
      "arguments": [
        "0x4b9Cf8035F1196810a6c38896A3d06B7e539d745"
      ],
      "transaction": {
        "from": "0x3e1502d679dfd6cf3d48fa22a2870cfe196e13b3",
        "to": "0xff937c773426d16fbcac87df1735d013dd31dd1d",
        "gas": "0x326b7",
        "value": "0x0",
        "input": "0x9049f9d20000000000000000000000004b9cf8035f1196810a6c38896a3d06b7e539d745",
        "nonce": "0x31",
        "chainId": "0xaa36a7"
      },
      "additionalContracts": [],
      "isFixedGasLimit": false
    }
  ],
  "receipts": [
    {
      "status": "0x1",
      "cumulativeGasUsed": "0xb76c54",
      "logs": [
        {
          "address": "0xff937c773426d16fbcac87df1735d013dd31dd1d",
          "topics": [
            "0x7512dd2bd356078b9c64a601ac870c6869f0d6a15804a06fc1df6a4948910f03",
            "0x0000000000000000000000004b9cf8035f1196810a6c38896a3d06b7e539d745"
          ],
          "data": "0x000000000000000000000000000000000000000000000000000000000000000100000000000000000000000000000000000000000000000000000000000003e80000000000000000000000000000000000000000000000000000000000001d4c0000000000000000000000000000000000000000000000000000000000001388",
          "blockHash": "0x45e7d9491a43a25518c76bfb4a0f9f027287d99c47a1574640ae6ed14a228a91",
          "blockNumber": "0x5fc406",
          "transactionHash": "0x9e3a2be88aa0f8bf2ac7d3e318999f505c4bca57022940360d727056ab6456a0",
          "transactionIndex": "0x3c",
          "logIndex": "0x97",
          "removed": false
        }
      ],
      "logsBloom": "0x00000000000000000000000000000000000000000000000000000000000000000000000000002000000000080000000000000000000000000000000001000400000000000000000000040000000000000000010000000000000000000000002000000000000000000000000000000000000000000000000000000000000000000000000000000000000000000000000000000000000000000000000000000000000000000000000000000000000000000000000000000000000000000000000000000800000000000000000000000000000000000000000000000000000000080000000000000000000000000000000000000000000000000000000000000000",
      "type": "0x2",
      "transactionHash": "0x9e3a2be88aa0f8bf2ac7d3e318999f505c4bca57022940360d727056ab6456a0",
      "transactionIndex": "0x3c",
      "blockHash": "0x45e7d9491a43a25518c76bfb4a0f9f027287d99c47a1574640ae6ed14a228a91",
      "blockNumber": "0x5fc406",
      "gasUsed": "0x2279a",
      "effectiveGasPrice": "0xd5f4f7e34",
      "from": "0x3e1502d679dfd6cf3d48fa22a2870cfe196e13b3",
      "to": "0xff937c773426d16fbcac87df1735d013dd31dd1d",
      "contractAddress": null
    }
  ],
  "libraries": [],
  "pending": [],
  "returns": {},
  "timestamp": 1720522314,
  "chain": 11155111,
  "commit": "1aafd5a"
}