{
  "transactions": [
    {
      "hash": "0xe349cb2d5681d274124e6a5a2e8cf31dc01def5093d0c864afa73bb5deab8316",
      "transactionType": "CALL",
      "contractName": null,
      "contractAddress": "0xff0e498a612a0c958bf7d42c6137ba59c358a5ba",
      "function": "createPool(address)",
      "arguments": [
        "0x3E1502D679dfD6Cf3D48fA22a2870CFE196e13b3"
      ],
      "transaction": {
        "from": "0x3e1502d679dfd6cf3d48fa22a2870cfe196e13b3",
        "to": "0xff0e498a612a0c958bf7d42c6137ba59c358a5ba",
        "gas": "0x3a7d2",
        "value": "0x0",
        "input": "0x9049f9d20000000000000000000000003e1502d679dfd6cf3d48fa22a2870cfe196e13b3",
        "nonce": "0x43",
        "chainId": "0xaa36a7"
      },
      "additionalContracts": [],
      "isFixedGasLimit": false
    }
  ],
  "receipts": [
    {
      "status": "0x1",
      "cumulativeGasUsed": "0x800986",
      "logs": [
        {
          "address": "0xff0e498a612a0c958bf7d42c6137ba59c358a5ba",
          "topics": [
            "0x7512dd2bd356078b9c64a601ac870c6869f0d6a15804a06fc1df6a4948910f03",
            "0x0000000000000000000000003e1502d679dfd6cf3d48fa22a2870cfe196e13b3"
          ],
          "data": "0x000000000000000000000000000000000000000000000000000000000000000100000000000000000000000000000000000000000000000000000000000003e80000000000000000000000000000000000000000000000000000000000001d4c0000000000000000000000000000000000000000000000000000000000002328",
          "blockHash": "0x4567d88d45c2320a5cc62a9af25affe6f8d9e042c1bc0e2afad780ed4e1bc41d",
          "blockNumber": "0x605a45",
          "transactionHash": "0xe349cb2d5681d274124e6a5a2e8cf31dc01def5093d0c864afa73bb5deab8316",
          "transactionIndex": "0x3f",
          "logIndex": "0x6c",
          "removed": false
        }
      ],
      "logsBloom": "0x00000000000000000000000000000000000000000000000000000000040000000000000000000000000000080000000000000000000000000000000000000000000000000000000000000000000000000000010000000000000000000000000000000000000000000000000000000000000000000000000000000040000000000000000000000000000000000000000080000000000000000020000000000000000000000000000000000000000000000000000000000000000000000000000000000800000000000800000000000000000000000000000000000000000000000000000020000000000000000000000000000000000000000000000000000000",
      "type": "0x2",
      "transactionHash": "0xe349cb2d5681d274124e6a5a2e8cf31dc01def5093d0c864afa73bb5deab8316",
      "transactionIndex": "0x3f",
      "blockHash": "0x4567d88d45c2320a5cc62a9af25affe6f8d9e042c1bc0e2afad780ed4e1bc41d",
      "blockNumber": "0x605a45",
      "gasUsed": "0x27fe1",
      "effectiveGasPrice": "0x23e3ab2ee",
      "from": "0x3e1502d679dfd6cf3d48fa22a2870cfe196e13b3",
      "to": "0xff0e498a612a0c958bf7d42c6137ba59c358a5ba",
      "contractAddress": null
    }
  ],
  "libraries": [],
  "pending": [],
  "returns": {},
  "timestamp": 1721040529,
  "chain": 11155111,
  "commit": "42b762d"
}