{
  "transactions": [
    {
      "hash": "0x58119a882ad67f7086ba3d2aad0a75ae210700aed9605d6b7635a689ee7dbfae",
      "transactionType": "CALL",
      "contractName": null,
      "contractAddress": "0xff937c773426d16fbcac87df1735d013dd31dd1d",
      "function": "requestMintFBTC0(uint256,bytes32,uint256)",
      "arguments": [
        "495347",
        "0xcd731a2eba545379d7d37e1a747ac442b83982fa4feb326892734e1dc9d63d62",
        "0"
      ],
      "transaction": {
        "from": "0x929f3f70c9edc192a3d3578d7463079aa3e2c7a8",
        "to": "0xff937c773426d16fbcac87df1735d013dd31dd1d",
        "gas": "0x90917",
        "value": "0x0",
        "input": "0x8d63ad9e0000000000000000000000000000000000000000000000000000000000078ef3cd731a2eba545379d7d37e1a747ac442b83982fa4feb326892734e1dc9d63d620000000000000000000000000000000000000000000000000000000000000000",
        "nonce": "0xb",
        "chainId": "0xaa36a7"
      },
      "additionalContracts": [],
      "isFixedGasLimit": false
    }
  ],
  "receipts": [
    {
      "status": "0x1",
      "cumulativeGasUsed": "0xdd4a44",
      "logs": [
        {
          "address": "0x0ad89e552ed249a8a60729214e8f5e483f317f47",
          "topics": [
            "0x903c4021d4469fbbdf338ec3409a975e2ccbd3990776eab0750c28a16617d780",
            "0xab385aef050f9729e6a7bd1a5473cbb79900e847285fbf30f27874240f571548",
            "0x0000000000000000000000000000000000000000000000000000000000000001"
          ],
          "data": "0x00000000000000000000000000000000000000000000000000000000000000200000000000000000000000000000000000000000000000000000000000000001000000000000000000000000000000000000000000000000000000000000000100000000000000000000000000000000000000000000000000000000000000a0011000000000000000000000000000000000000000000000000000000000000000000000000000000000000000000000000000000000000000000000000001400000000000000000000000000000000000000000000000000000000000aa36a700000000000000000000000000000000000000000000000000000000000001a00000000000000000000000000000000000000000000000000000000000078ef3000000000000000000000000000000000000000000000000000000000000000000000000000000000000000000000000000000000000000000000000000001e0000000000000000000000000000000000000000000000000000000000000002a7462317132786164706a7263763068666e7a633378667a796c75796c797736796b6c763377756c783770000000000000000000000000000000000000000000000000000000000000000000000000000000000000000000000000000000000020000000000000000000000000c6c21d794301454db5f9db53faf00b39ee5449000000000000000000000000000000000000000000000000000000000000000040cd731a2eba545379d7d37e1a747ac442b83982fa4feb326892734e1dc9d63d620000000000000000000000000000000000000000000000000000000000000000",
          "blockHash": "0x46ff5579cd7708107f3733b9726c8679426e3ec165cd8e84d540ff507792459d",
          "blockNumber": "0x5fd9d6",
          "transactionHash": "0x58119a882ad67f7086ba3d2aad0a75ae210700aed9605d6b7635a689ee7dbfae",
          "transactionIndex": "0x3c",
          "logIndex": "0x8a",
          "removed": false
        },
        {
          "address": "0xc6c21d794301454db5f9db53faf00b39ee544900",
          "topics": [
            "0x40437f5b5efa7a3dbb236b68d7f7d35e39569784533f138d1e71ac159ccde9f6",
            "0x000000000000000000000000ff937c773426d16fbcac87df1735d013dd31dd1d"
          ],
          "data": "0xcd731a2eba545379d7d37e1a747ac442b83982fa4feb326892734e1dc9d63d6200000000000000000000000000000000000000000000000000000000000000000000000000000000000000000000000000000000000000000000000000078ef3",
          "blockHash": "0x46ff5579cd7708107f3733b9726c8679426e3ec165cd8e84d540ff507792459d",
          "blockNumber": "0x5fd9d6",
          "transactionHash": "0x58119a882ad67f7086ba3d2aad0a75ae210700aed9605d6b7635a689ee7dbfae",
          "transactionIndex": "0x3c",
          "logIndex": "0x8b",
          "removed": false
        },
        {
          "address": "0xff937c773426d16fbcac87df1735d013dd31dd1d",
          "topics": [
            "0x8022b7634e41e85acb31c02aac9ebf48db1ffb4eed739b3d8c4ff67a5e9bc1b2"
          ],
          "data": "0x0000000000000000000000000000000000000000000000000000000000078ef3cd731a2eba545379d7d37e1a747ac442b83982fa4feb326892734e1dc9d63d620000000000000000000000000000000000000000000000000000000000000000",
          "blockHash": "0x46ff5579cd7708107f3733b9726c8679426e3ec165cd8e84d540ff507792459d",
          "blockNumber": "0x5fd9d6",
          "transactionHash": "0x58119a882ad67f7086ba3d2aad0a75ae210700aed9605d6b7635a689ee7dbfae",
          "transactionIndex": "0x3c",
          "logIndex": "0x8c",
          "removed": false
        }
      ],
      "logsBloom": "0x00000000000000010000000000001000000000000000000000000000000000000000000000400000000000000000000000000000080000000000000000040400000200000000220000000000000000000001000000040000000000000010002000000404000000000000800000000000000000000000000000000000000000000000000000000000000000040000000000000010000000000000000000000000000000000000000000400000000000000000000800000000000000000000000000000000000000000800400008000000000000000000000000000000000040080000000000000000000000000000000000000100000000000000000000000000",
      "type": "0x2",
      "transactionHash": "0x58119a882ad67f7086ba3d2aad0a75ae210700aed9605d6b7635a689ee7dbfae",
      "transactionIndex": "0x3c",
      "blockHash": "0x46ff5579cd7708107f3733b9726c8679426e3ec165cd8e84d540ff507792459d",
      "blockNumber": "0x5fd9d6",
      "gasUsed": "0x62d9a",
      "effectiveGasPrice": "0x55481e8bc",
      "from": "0x929f3f70c9edc192a3d3578d7463079aa3e2c7a8",
      "to": "0xff937c773426d16fbcac87df1735d013dd31dd1d",
      "contractAddress": null
    }
  ],
  "libraries": [],
  "pending": [],
  "returns": {},
  "timestamp": 1720595764,
  "chain": 11155111,
  "commit": "0f9b931"
}
