{
  "transactions": [
    {
      "hash": "0x241669bb26f008f83d49654e2526e6ff30a0ecb9267235f1b2367aef0fd78777",
      "transactionType": "CALL",
      "contractName": null,
      "contractAddress": "0xff937c773426d16fbcac87df1735d013dd31dd1d",
      "function": "requestBorrow(uint256)",
      "arguments": [
        "10000000"
      ],
      "transaction": {
        "from": "0x929f3f70c9edc192a3d3578d7463079aa3e2c7a8",
        "to": "0xff937c773426d16fbcac87df1735d013dd31dd1d",
        "gas": "0x2450f",
        "value": "0x0",
        "input": "0x757680aa0000000000000000000000000000000000000000000000000000000000989680",
        "nonce": "0x6",
        "chainId": "0xaa36a7"
      },
      "additionalContracts": [],
      "isFixedGasLimit": false
    }
  ],
  "receipts": [
    {
      "status": "0x1",
      "cumulativeGasUsed": "0xad0457",
      "logs": [
        {
          "address": "0xff937c773426d16fbcac87df1735d013dd31dd1d",
          "topics": [
            "0xef1cccf09aac4d154cf3923aeb26585c758c2f07be105f537b3016acf02e3c19",
            "0x000000000000000000000000929f3f70c9edc192a3d3578d7463079aa3e2c7a8"
          ],
          "data": "0x000000000000000000000000000000000000000000000000000000000098968000000000000000000000000000000000000000000000000000000000000000000000000000000000000000000000000000000000000000000000000000487ab0000000000000000000000000000000000000000000000000000000000000000000000000000000000000000000000000000000000000000000000000009896800000000000000000000000000000000000000000000000000000000000000000",
          "blockHash": "0x92459774dcfc33681b28c0b84d4596275ece1b05a5f35d237adcb6b619bb7a76",
          "blockNumber": "0x5fc0d3",
          "transactionHash": "0x241669bb26f008f83d49654e2526e6ff30a0ecb9267235f1b2367aef0fd78777",
          "transactionIndex": "0x4f",
          "logIndex": "0x9c",
          "removed": false
        }
      ],
      "logsBloom": "0x00000000000000000000000000000000000000000000000000000000000000000000000000000000000000000000000000000000000000000000000000000400000000000000000000000000000000000000000000000000000000000000002000000000000004000000000000000000000000000000000000000000000200000000000004000000000000000000000000000000000000000000000800000000000000000000000000000000000000000000000000000000000000000000000000000000000000000000000000000000000000400000000000000000008000080000000000000000000000000000000000000000000000000000000000000000",
      "type": "0x2",
      "transactionHash": "0x241669bb26f008f83d49654e2526e6ff30a0ecb9267235f1b2367aef0fd78777",
      "transactionIndex": "0x4f",
      "blockHash": "0x92459774dcfc33681b28c0b84d4596275ece1b05a5f35d237adcb6b619bb7a76",
      "blockNumber": "0x5fc0d3",
      "gasUsed": "0x1a4ae",
      "effectiveGasPrice": "0x89b978c0f",
      "from": "0x929f3f70c9edc192a3d3578d7463079aa3e2c7a8",
      "to": "0xff937c773426d16fbcac87df1735d013dd31dd1d",
      "contractAddress": null
    }
  ],
  "libraries": [],
  "pending": [],
  "returns": {},
  "timestamp": 1720511573,
  "chain": 11155111,
  "commit": "1aafd5a"
}