{
  "transactions": [
    {
      "hash": "0x5ac6d449010233508849aa59de7aa931e60eb3f864e464637c0522bed95435b1",
      "transactionType": "CALL",
      "contractName": null,
      "contractAddress": "0xff937c773426d16fbcac87df1735d013dd31dd1d",
      "function": "withdraw(uint256)",
      "arguments": [
        "495347"
      ],
      "transaction": {
        "from": "0x929f3f70c9edc192a3d3578d7463079aa3e2c7a8",
        "to": "0xff937c773426d16fbcac87df1735d013dd31dd1d",
        "gas": "0x2ca47",
        "value": "0x0",
        "input": "0x2e1a7d4d0000000000000000000000000000000000000000000000000000000000078ef3",
        "nonce": "0xc",
        "chainId": "0xaa36a7"
      },
      "additionalContracts": [],
      "isFixedGasLimit": false
    }
  ],
  "receipts": [
    {
      "status": "0x1",
      "cumulativeGasUsed": "0xf0029d",
      "logs": [
        {
          "address": "0xc6c21d794301454db5f9db53faf00b39ee544900",
          "topics": [
            "0xddf252ad1be2c89b69c2b068fc378daa952ba7f163c4a11628f55a4df523b3ef",
            "0x000000000000000000000000ff937c773426d16fbcac87df1735d013dd31dd1d",
            "0x0000000000000000000000000000000000000000000000000000000000000000"
          ],
          "data": "0x0000000000000000000000000000000000000000000000000000000000078ef3",
          "blockHash": "0xf793b03d6a0210232315c76bc494787b29193b5c03c2a695d106583d813f9228",
          "blockNumber": "0x5fdb39",
          "transactionHash": "0x5ac6d449010233508849aa59de7aa931e60eb3f864e464637c0522bed95435b1",
          "transactionIndex": "0x68",
          "logIndex": "0xc8",
          "removed": false
        },
        {
          "address": "0x037017580b1ed99952a006b5197592b1aa08a166",
          "topics": [
            "0xddf252ad1be2c89b69c2b068fc378daa952ba7f163c4a11628f55a4df523b3ef",
            "0x000000000000000000000000c6c21d794301454db5f9db53faf00b39ee544900",
            "0x000000000000000000000000ff937c773426d16fbcac87df1735d013dd31dd1d"
          ],
          "data": "0x0000000000000000000000000000000000000000000000000000000000078ef3",
          "blockHash": "0xf793b03d6a0210232315c76bc494787b29193b5c03c2a695d106583d813f9228",
          "blockNumber": "0x5fdb39",
          "transactionHash": "0x5ac6d449010233508849aa59de7aa931e60eb3f864e464637c0522bed95435b1",
          "transactionIndex": "0x68",
          "logIndex": "0xc9",
          "removed": false
        },
        {
          "address": "0xc6c21d794301454db5f9db53faf00b39ee544900",
          "topics": [
            "0x044048a001832cd48c791b083df562f39fbe1ec801a22676a54a87fee09d4485",
            "0x000000000000000000000000ff937c773426d16fbcac87df1735d013dd31dd1d"
          ],
          "data": "0x0000000000000000000000000000000000000000000000000000000000078ef3",
          "blockHash": "0xf793b03d6a0210232315c76bc494787b29193b5c03c2a695d106583d813f9228",
          "blockNumber": "0x5fdb39",
          "transactionHash": "0x5ac6d449010233508849aa59de7aa931e60eb3f864e464637c0522bed95435b1",
          "transactionIndex": "0x68",
          "logIndex": "0xca",
          "removed": false
        },
        {
          "address": "0x037017580b1ed99952a006b5197592b1aa08a166",
          "topics": [
            "0xddf252ad1be2c89b69c2b068fc378daa952ba7f163c4a11628f55a4df523b3ef",
            "0x000000000000000000000000ff937c773426d16fbcac87df1735d013dd31dd1d",
            "0x000000000000000000000000929f3f70c9edc192a3d3578d7463079aa3e2c7a8"
          ],
          "data": "0x0000000000000000000000000000000000000000000000000000000000078ef3",
          "blockHash": "0xf793b03d6a0210232315c76bc494787b29193b5c03c2a695d106583d813f9228",
          "blockNumber": "0x5fdb39",
          "transactionHash": "0x5ac6d449010233508849aa59de7aa931e60eb3f864e464637c0522bed95435b1",
          "transactionIndex": "0x68",
          "logIndex": "0xcb",
          "removed": false
        },
        {
          "address": "0xff937c773426d16fbcac87df1735d013dd31dd1d",
          "topics": [
            "0xe0980b6f788055a4ac0d4afb4a085a1e124fc8c409982bc42b64113a6c88dbaf",
            "0x000000000000000000000000929f3f70c9edc192a3d3578d7463079aa3e2c7a8"
          ],
          "data": "0x0000000000000000000000000000000000000000000000000000000000078ef300000000000000000000000000000000000000000000000000000000668cef8c000000000000000000000000000000000000000000000000000000000040d99000000000000000000000000000000000000000000000000000000000009896800000000000000000000000000000000000000000000000000000000000000000000000000000000000000000000000000000000000000000000000000016f58d",
          "blockHash": "0xf793b03d6a0210232315c76bc494787b29193b5c03c2a695d106583d813f9228",
          "blockNumber": "0x5fdb39",
          "transactionHash": "0x5ac6d449010233508849aa59de7aa931e60eb3f864e464637c0522bed95435b1",
          "transactionIndex": "0x68",
          "logIndex": "0xcc",
          "removed": false
        }
      ],
      "logsBloom": "0x00000000000000000000000000001000000000000000000000000000000000400000000002000002000000000000000010000000080008000000000000000400000000000000200000000008000000000000000000000000000000000000002000000000020000000000000000000800000000000000000000000010000000000000000080000000000000000000000000000000000000000000000800000000000000000000000000000000000000000000000000000000000000000000000000000002000000000800400008000000000000400a00000000000010008020080000200000000040000000000000000000000000000000000000400000000000",
      "type": "0x2",
      "transactionHash": "0x5ac6d449010233508849aa59de7aa931e60eb3f864e464637c0522bed95435b1",
      "transactionIndex": "0x68",
      "blockHash": "0xf793b03d6a0210232315c76bc494787b29193b5c03c2a695d106583d813f9228",
      "blockNumber": "0x5fdb39",
      "gasUsed": "0x20520",
      "effectiveGasPrice": "0x55d573947",
      "from": "0x929f3f70c9edc192a3d3578d7463079aa3e2c7a8",
      "to": "0xff937c773426d16fbcac87df1735d013dd31dd1d",
      "contractAddress": null
    }
  ],
  "libraries": [],
  "pending": [],
  "returns": {},
  "timestamp": 1720600359,
  "chain": 11155111,
  "commit": "0f9b931"
}